:020000040800F2
:10000000480E00202D3E0008B1030008B30300088D
:10001000B5030008B7030008B9030008000000009A
:10002000000000000000000000000000BB0300080A
:10003000BD03000800000000BF030008C103000862
:10004000473E0008473E0008473E0008473E00087C
:10005000473E0008473E0008473E0008473E00086C
:10006000473E0008473E0008473E0008473E00085C
:10007000473E0008473E0008473E0008473E00084C
:10008000473E0008473E0008473E0008473E00083C
:10009000473E0008473E0008473E00081D9B0008F9
:1000A000473E0008473E0008473E0008473E00081C
:1000B000473E0008473E000817A80008473E0008D2
:1000C000473E0008473E0008473E0008473E0008FC
:1000D000473E0008C53D0008473E0008473E00086F
:1000E000473E0008473E0008473E0008473E0008DC
:1000F000473E0008473E0008473E0008473E0008CC
:10010000473E0008473E0008473E0008473E0008BB
:10011000473E0008473E0008473E0008473E0008AB
:10012000473E0008473E0008473E0008473E00089B
:10013000473E0008473E0008473E0008473E00088B
:10014000473E0008473E0008473E0008473E00087B
:10015000473E0008473E0008473E0008473E00086B
:10016000473E0008473E0008473E0008473E00085B
:10017000473E0008473E0008473E0008473E00084B
:10018000473E0008473E000800F002F800F070F813
:100190000AA090E8000C82448344AAF10107DA45E2
:1001A00001D100F065F8AFF2090EBAE80F0013F0C4
:1001B000010F18BFFB1A43F0010318476CD1000070
:1001C0008CD100000A444FF0000C10F8013B13F0F2
:1001D000070408BF10F8014B1D1108BF10F8015BA0
:1001E000641E05D010F8016B641E01F8016BF9D193
:1001F00013F0080F1EBF10F8014BAD1C0C1B09D1EA
:100200006D1E58BF01F801CBFAD505E014F8016B5B
:1002100001F8016B6D1EF9D59142D6D370470000ED
:100220000023002400250026103A28BF78C1FBD8FF
:10023000520728BF30C148BF0B60704769290AF0D8
:10024000F98764290AF0F68775290AF0F387782977
:100250000BF02C8063290BF03C8273290BF0418258
:10026000002070471FB50BF0CFFB1FBD10B510BDB0
:100270000BF052FA1146FFF7F5FF00F03CF80BF0D7
:1002800070FA03B4FFF7F2FF03BC03F041FD000076
:100290000021314B1884084603EB4002528823F8B2
:1002A00010201144401C89B21028F5DB0809704762
:1002B0002A4D2B4E0024284A2A4922322A4809F086
:1002C00060FB07462888FFF7E3FF1FB9298827A0AE
:1002D0000AF040FF1E2003F000FD641CE4B2142C61
:1002E000E9D1D6F89C02002418B10020C6F89C027F
:1002F000E1E70120FAE74FF4A06003F0B7FDA82082
:1003000003F0AAFC4FF4E13003F00AFD00F018F905
:10031000134C0BE017A00AF01DFF642003F0DDFC76
:10032000D4F8980280B10020C4F898020E4809F071
:1003300075F90028EED114A00AF00CFF00210A483C
:1003400009F084FA10B104E00120EDE712A00AF0F0
:1003500001FFFFF7ADFF00007C0400202A0300200E
:1003600000004042A80700209405002025640D0AE3
:1003700000000000564C35334C3058204572726FE7
:10038000722121210A0D0000564C35334C30582083
:100390004F4B0D0A00000000564C35334C305820AE
:1003A0004D4F444520534554204F4B0D0A0000004B
:1003B0007047FEE7FEE7FEE7FEE7704770477047CD
:1003C000704700000CB50022544900920192086861
:1003D00040F4803008604FF4A043086800F4003017
:1003E00001900098401C0090019810B90098984224
:1003F000F3D10868800334D501200190474840308C
:10040000026842F0805202604548026842F440426D
:1004100002604248083002680260026842F400420A
:100420000260026842F4A0520260031F3D4A1A6053
:100430000A6842F080720A600A689201FCD53A4963
:1004400040F205720A60016821F003010160016851
:1004500041F0020101600168C1F381010229FAD172
:100460000CBD01920CBD314810B5016841F470011A
:1004700001602A48016841F001010160274A00211A
:100480000832116002682A4B1A400260031D294A93
:100490001A60026822F48022026020480C30016059
:1004A000FFF790FF21494FF000608039086010BDD0
:1004B00070B51A4D083528681F4B204910F00C0004
:1004C00004D05E10042803D0082803D00B601BE082
:1004D0000E6019E0114A121D1068C0F380541068B4
:1004E00000F03F0014B1B6FBF0F001E0B3FBF0F018
:1004F00013681268C3F388135843C2F30142521CB5
:100500005200B0FBF2F0086028680C4AC0F30310F8
:10051000121D105C0A68C2400A6070BD00380240BB
:100520000070004008544007003C024088ED00E0A5
:10053000FFFFF6FE103000240024F400000000202D
:100540001CB50121084604F07CF9C0200090012070
:100550008DF8040000208DF8060003218DF80510A9
:10056000054C8DF807006946204603F043FDC02185
:10057000204603F0A4FD1CBD0000024001B5BDF8FB
:100580000000ADF80000BDF800004FF0D841A1F820
:100590007E0008BD01B5BDF80000ADF80000BDF853
:1005A00000004FF0D841A1F8800008BD08B54FF019
:1005B000D840B0F88000ADF80000BDF8000008BDDC
:1005C0004FF0D84222F87E0F5180704710B5FFF7E8
:1005D000D5FF052003F053FBBDE81040E6E7FE48D9
:1005E0004FF0D8410089A1F87E0070474FF0D84104
:1005F000A1F880007047C0F34511C20AC00200EBA9
:100600004110104480B27047401EC0B2FCD2704707
:10061000F0B5F14D0C460246070AA9882846260A7D
:100620004089A1F5C853633B15D0A1F5AA43103BFF
:100630004AD0FFF7A3FF3846FFF7ACFFD0B2FFF771
:10064000A9FFA889FFF79AFF3046FFF7A3FFE0B2A2
:10065000BDE8F0409EE7A97929B3FFF78FFF384640
:10066000FFF798FFD0B2FFF795FF2888401EC0F330
:100670000F20FFF78FFF2878401EC0B2FFF78AFFD8
:10068000A889FFF77BFF3046FFF784FFE0B2FFF752
:1006900081FF6888401EC0F30F20FFF77BFFA8781A
:1006A000401EC0B2D4E72988891A491E8AB2FFF7D2
:1006B00065FF0020FFF76EFF0020FFF76BFF100AB9
:1006C000FFF768FFD0B2D9E7FFF758FF3846FFF7CA
:1006D00061FF6889401C80B2FFF750FFD0B2FFF77E
:1006E00059FFA889FFF74AFF3046FFF753FFA88953
:1006F000401C80B2FFF742FFA9E710B5B64C228834
:10070000824202D962888A4201D8002010BDFFF7D8
:100710007FFFA088A0F5AA4110391BD02E20FFF73B
:100720002DFFFFF743FFA188A1F5C852633AEDD032
:10073000FFF73CFF0146FFF739FFCAB24FF6FF73E0
:1007400003EA02226FF30A01920A41EA421141EAE6
:10075000D02010BD4FF43850E1E79F488088A0F5C5
:10076000AA41103901D0292008E74FF42450FBE7B3
:1007700099488088A0F5AA41103901D02820FDE6CB
:100780004FF42050FBE770B5934C00232146A2792B
:10079000898841F66315012A01D01AB11BE0A942EC
:1007A00002D118E0A94216D1082814D2DFE800F0DF
:1007B0000406080A0C0E101206200CE007200AE0BE
:1007C000042008E0052006E0012004E0002002E00B
:1007D000032000E00220082812D2DFE800F0110414
:1007E00006080A0C0E1080230AE0402308E0C0230C
:1007F00006E0202304E0602302E0A02300E0E023E1
:1008000045F21056B14202D14FF4585000E0362064
:10081000A1F51342413A03D0A1F5EE42893A01D144
:1008200043F008031946FFF7CBFEA288AA420ED078
:10083000980606D520886188884208D22180608089
:1008400005E021886088814201D92080618060892B
:10085000B24240D1FFF792FE0020FFF79BFE608975
:10086000401C80B2FFF78AFE0020FFF793FE6089EC
:10087000801C80B2FFF782FE2088401EC0F30F204C
:10088000FFF788FE6089C01C80B2FFF777FE2078F2
:10089000401EC0B2FFF77EFEA089FFF76FFE00206A
:1008A000FFF778FEA089401C80B2FFF767FE0020AA
:1008B000FFF770FEA089801C80B2FFF75FFE6088A2
:1008C000401EC0F30F20FFF765FEA089C01C80B258
:1008D000FFF754FE21E0FFF751FE0020FFF75AFE1C
:1008E0000020FFF757FE2088401EC0F30F20FFF7BF
:1008F00051FE2078401EC0B2FFF74CFEA089FFF7E2
:100900003DFE0020FFF746FE0020FFF743FE608813
:10091000401EC0F30F20FFF73DFEA078BDE87040F9
:10092000401EC0B236E600B5FFF772FEFFF757FE75
:100930002A484FF0D8410088A1F8800000BDF0B5EA
:10094000254E0D460446070AB1883046A1F5AA4354
:1009500040894FEA152C103B0FD0A1F5C853633BDB
:1009600024D0FFF70BFE3846FFF714FEE0B2FFF786
:1009700011FEB089FFF702FE3BE0FFF7FFFD3846AE
:10098000FFF708FE7089401C80B2FFF7F7FDE0B268
:10099000FFF700FEB089FFF7F1FD6046FFF7FAFDB3
:1009A000B089401C80B2FFF7E9FD25E0B17919B9A3
:1009B0003188091B491E8CB2FFF7E0FD270A384633
:1009C000FFF7E8FDE0B2FFF7E5FD3846FFF7E2FD8F
:1009D000E0B2FFF7DFFD03E0BE04002014000020BA
:1009E000B089FFF7CBFD6046FFF7D4FDE8B2FFF713
:1009F000D1FD6046FFF7CEFDE8B2FFF7CBFD4FF02B
:100A0000D840318920F87E1F4280F0BD10B50246E3
:100A1000BE20FFF7B3FD0520FFF7BCFD10460AF02E
:100A2000E2FE9FEDFE1B53EC112B0AF0EFFE0AF0E5
:100A3000ADFE80B2FFF7AEFD0120FFF7ABFDFF205A
:100A4000FFF7A8FD0020FFF7A5FDBDE8104000203E
:100A5000A0E52DE9F04FF34B2C27194698712B2573
:100A600089884FF4305A4FF4285B4FF4487441F6AC
:100A7000631E2A264FF0F00845F210594FF4A07C6F
:100A80004FF4F072C0B1A3F800C0A3F8028049454A
:100A900032D1A3F808A0A3F80AB0280298811C80DC
:100AA0005A80A1F5A640103802D11A80A3F802C0DE
:100AB000BDE8F04F002066E6A3F80080A3F802C06E
:100AC000494507D1A3F808A0A3F80AB04FF42C5069
:100AD000988104E071451F8104D15D819E811A8057
:100AE0005C8001E05E819D81A1F5A6401038DFD1D8
:100AF000A3F800C05A80DBE71F815E8171459D81AC
:100B0000CDD0CEE72DE9F047054699461044C54EB5
:100B1000401E01EB09030C461FFA80FCB1883046E9
:100B20005B1E4089A1F5C8589FB24FEA142AB8F15C
:100B3000630825D196F80680B8F1010F20D03188DE
:100B40009FB2891A491B8DB2FFF718FD280AFFF7DB
:100B500021FDE8B2FFF71EFD2A44521EC2F30F200A
:100B6000FFF718FDD0B2FFF715FDB089FFF706FDBE
:100B70005046FFF70FFDE0B2FFF70CFD380A27E003
:100B800004EB0908A8F101082A44C8F30729521EFA
:100B9000C2F307282A0AA1F5AA43103B1ED0FFF78B
:100BA000EDFC1046FFF7F6FCE8B2FFF7F3FC404619
:100BB000FFF7F0FC0CF0FF00FFF7ECFCB089FFF74B
:100BC000DDFC5046FFF7E6FCE0B2FFF7E3FC4846E9
:100BD000FFF7E0FCF8B2BDE8F047DBE4FFF7CEFC3E
:100BE0001046FFF7D7FC7089401C80B2FFF7C6FCA7
:100BF000E8B2FFF7CFFC7089801C80B2FFF7BEFC23
:100C00004046FFF7C7FC7089C01C80B2FFF7B6FCF6
:100C10000CF0FF00FFF7BEFCB089FFF7AFFC5046B9
:100C2000FFF7B8FCB089401C80B2FFF7A7FCE0B228
:100C3000FFF7B0FCB089801C80B2FFF79FFC4846EC
:100C4000FFF7A8FCB089C01C80B2FFF797FCC1E792
:100C500070B574490646002408884D8821464543EE
:100C60002046FFF7D5FCFFF7BAFC4FF0D84002E072
:100C7000A0F88060641CAC42FAD370BD2DE9F04F3F
:100C8000A1B0002401217A201F9403F0DAFD012194
:100C9000084603F0EAFD01258DF804504FF40040AA
:100CA0008DF80640022600908DF805608DF80750FB
:100CB00069465D4803F09EF98DF804604CF233708C
:100CC0008DF806400327DFF8648100908DF80570E9
:100CD0008DF807506946404603F08CF98DF80460A2
:100CE0004FF680708DF80640DFF8449100908DF843
:100CF00005708DF807506946484603F07BF98DF87A
:100D0000046028038DF8064000908DF805708DF87A
:100D100007506946474803F06DF98DF804602803D1
:100D20008DF8064000908DF805708DF807506946E3
:100D3000414803F05FF90C220021404603F0CEF950
:100D40000C220121404603F0C9F90C22042140463F
:100D500003F0C4F90C220521404603F0BFF90C2230
:100D60000821404603F0BAF90C220921404603F05D
:100D7000B5F90C220A21404603F0B0F90C220E21ED
:100D8000404603F0ABF90C220F21404603F0A6F9D0
:100D90000C220721484603F0A1F90C2208214846FD
:100DA00003F09CF90C220921484603F097F90C2224
:100DB0000A21484603F092F90C220B21484603F021
:100DC0008DF90C221146484603F088F90C220D21BA
:100DD000484603F083F90C220E21484603F07EF9C1
:100DE0000C220F21484603F079F90C2211461148D4
:100DF00003F074F90C2211460F4803F06FF90F202D
:100E0000CDE911043C20CDE9130415940920169472
:100E1000CDE917400820CDE919400FE06666666607
:100E200066660440BE04002000040240000C02403C
:100E30000010024000140240001802401B941C9451
:100E40000620CDE902041D941E941020CDE9044033
:100E500006940002CDE90A40089407948000CDE989
:100E60000C40099411A8CDE90E4018A8109002A8D2
:100E700003F06DF90121062003F0E2F9322002F0BF
:100E80002CFFD320FFF77AFBFFF790FBFE4CA080EE
:100E9000FFF78CFB21468880FFF788FB4FF6FF7138
:100EA00001EA002021468880FFF780FB214645F2B9
:100EB0001037898845F210560843214641F66318D9
:100EC0008880A0F5134147F289754FF4704A4FF2BC
:100ED000010B413976D00420FFF750FBFFF766FB8A
:100EE000A080FFF763FBA080FFF760FB4FF6FF7C5D
:100EF0000CEA0020A080FFF759FBA1880843A0F569
:100F00000541A08052397DD0A8425BD0D420FFF7A4
:100F100035FBFFF74BFBA080FFF748FBA080FFF7F6
:100F200045FB0CEA0020A080FFF740FBA1880843A6
:100F3000A080B84246D055215046FFF741FBAA2178
:100F40005846FFF73DFB52214FF20200FFF738FBF6
:100F500008214FF20300FFF733FB01214FF2040099
:100F6000FFF72EFB4FF44540FFF708FBFFF71EFB92
:100F70000CEA0020A080E1464CF20150FFF7FEFA97
:100F8000FFF714FBA1880843A080052002F0A5FE0E
:100F9000A088B0F5004F45D0B04213D0A120FFF794
:100FA000EDFAFFF703FBA080FFF700FB09EA002042
:100FB000A080FFF7FBFAA1880843A0F5AE41A0800E
:100FC00061392CD0A088A0F51341413907D0A8423F
:100FD00005D0B84203D0B04201D0404528D14FF0EF
:100FE0002040D0F81C1121F00F01C0F81C11D0F8DE
:100FF0001C1121F47061C0F81C11D0F81C1141F0D3
:10100000030100E009E0C0F81C11A188A942D0F852
:101010001C1109D141F4407108E0A580DFE7A4F874
:101020000480DCE7A680DAE741F40071C0F81C1107
:10103000A18896A00AF08EF8A088A0F51341413946
:101040007ED0A8427DD11120FFF798FA782002F0D7
:1010500044FE3620FFF792FA0020FFF79BFA3A2071
:10106000FFF78CFA0520FFF795FAB220FFF786FA12
:101070000C20FFF78FFA0C20FFF78CFA0020FFF707
:1010800089FA3320FFF786FA3320FFF783FAB72077
:10109000FFF774FA3520FFF77DFABB20FFF76EFAF1
:1010A0003220FFF777FAC020FFF768FA0C20FFF72D
:1010B00071FAC220FFF762FA0120FFF76BFAC32032
:1010C000FFF75CFA1020FFF765FAC420FFF756FA25
:1010D0002020FFF75FFAC620FFF750FA0F20FFF736
:1010E00059FAD020FFF74AFAA420FFF753FAA120BB
:1010F000FFF750FAE020FFF741FAD020FFF74AFA55
:101100000020FFF747FA0220FFF744FA0720FFF715
:1011100041FA0A20FFF73EFA2820FFF73BFA322077
:10112000FFF738FA4420FFF735FA4220FFF732FA8A
:101130000620FFF72FFA0E20FFF72CFA122001E00D
:1011400056E072E1FFF726FA1420FFF723FA172082
:10115000FFF720FAE120FFF711FAD020FFF71AFA83
:101160000020FFF717FA0220FFF714FA0720FFF715
:1011700011FA0A20FFF70EFA2820FFF70BFA3120A8
:10118000FFF708FA5420FFF705FA4720FFF702FAA5
:101190000E20FFF7FFF91C20FFF7FCF91720FFF7DF
:1011A000F9F91B20FFF7F6F91E20FFF7F3F92A20C3
:1011B000FFF7E4F90020FFF7EDF90020FFF7EAF967
:1011C0000020FFF7E7F9EF20FFF7E4F92B20FFF706
:1011D000D5F90020FFF7DEF90020FFF7DBF9012049
:1011E000FFF7D8F93F20FFF7D5F9292002F017B80B
:1011F000CF20FFF7C3F90020FFF7CCF9C120FFF79C
:10120000C9F93020FFF7C6F9ED20FFF7B7F96420E0
:10121000FFF7C0F90320FFF7BDF91220FFF7BAF975
:101220008120FFF7B7F9E820FFF7A8F98520FFF73D
:10123000B1F91020FFF7AEF97A20FFF7ABF9CB2018
:10124000FFF79CF93920FFF7A5F92C20FFF7A2F949
:101250000020FFF79FF93420FFF79CF90220FFF7E9
:1012600099F9F720FFF78AF92020FFF793F9EA2090
:10127000FFF784F90020FFF78DF90020FFF78AF9C6
:10128000C020FFF77BF909E0BE040020204C434456
:101290002049443A25780D0A000000001B20FFF782
:1012A00079F9C120FFF76AF90120FFF773F9C5202A
:1012B000FFF764F93020FFF76DF93020FFF76AF986
:1012C000C720FFF75BF9B720FFF764F93620FFF777
:1012D00055F94820FFF75EF93A20FFF74FF95520FE
:1012E000FFF758F9B120FFF749F90020FFF752F94D
:1012F0001A20FFF74FF9B620FFF740F90A20FFF751
:1013000049F9A220FFF746F9F220FFF737F900204C
:10131000FFF740F92620FFF731F90120FFF73AF9EE
:10132000E020FFF72BF90F20FFF734F92A20FFF711
:1013300031F92820FFF72EF90820FFF72BF90E20AE
:10134000FFF728F90820FFF725F95420FFF722F9C5
:10135000A920FFF71FF94320FFF71CF90A20FFF728
:1013600019F90F20FFF716F90020FFF713F90020F5
:10137000FFF710F90020FFF70DF90020FFF70AF939
:10138000E120FFF7FBF80020FFF704F91520FFF735
:1013900001F91720FFF7FEF80720FFF7FBF81120EF
:1013A000FFF7F8F80620FFF7F5F82B20FFF7F2F823
:1013B0005620FFF7EFF83C20FFF7ECF80520FFF789
:1013C000E9F81020FFF7E6F80F20FFF7E3F83F20D9
:1013D000FFF7E0F83F20FFF7DDF80F20FFF7DAF81E
:1013E0002B20FFF7CBF80020FFF7D4F80020FFF701
:1013F000D1F80120FFF7CEF83F20FFF7CBF82A20E5
:10140000FFF7BCF80020FFF7C5F80020FFF7C2F88F
:101410000020FFF7BFF8EF20FFF7BCF81120FFF71F
:10142000ADF8782002F059FCDFE6B8427ED1ED201D
:10143000FFF7A4F80120FFF7ADF8FE20FFF7AAF8A8
:10144000EE20FFF79BF8DE20FFF7A4F82120FFF73E
:10145000A1F8F120FFF792F80120FFF79BF8DF20B9
:10146000FFF78CF81020FFF795F8C420FFF786F8F7
:101470008F20FFF78FF8C620FFF780F80020FFF7D6
:1014800089F8E220FFF786F8E220FFF783F8E220F0
:10149000FFF780F8BF20FFF771F8AA20FFF77AF86E
:1014A000B020FFF76BF80D20FFF774F80020FFF76E
:1014B00071F80D20FFF76EF80020FFF76BF8112090
:1014C000FFF768F80020FFF765F81920FFF762F8CA
:1014D0000020FFF75FF82120FFF75CF80020FFF7FE
:1014E00059F82D20FFF756F80020FFF753F83D205C
:1014F000FFF750F80020FFF74DF85D20FFF74AF89E
:101500000020FFF747F85D20FFF744F80020FFF7C1
:1015100041F8B120FFF732F88020FFF73BF80020B8
:10152000FFF738F88B20FFF735F800E0FDE30020E7
:10153000FFF730F89620FFF72DF80020FFF72AF884
:10154000B220FFF71BF80020FFF724F80020FFF778
:1015500021F80220FFF71EF80020FFF71BF80320F8
:10156000FFF718F80020FFF715F8B320FFF706F88B
:101570000020FFF70FF80020FFF70CF80020FFF71E
:1015800009F80020FFF706F80020FFF703F8002015
:10159000FFF700F80020FEF7FDFF0020FEF7FAFF3E
:1015A0000020FEF7F7FF0020FEF7F4FF0020FEF713
:1015B000F1FF0020FEF7EEFF0020FEF7EBFF00201A
:1015C000FEF7E8FF0020FEF7E5FF0020FEF7E2FF50
:1015D0000020FEF7DFFF0020FEF7DCFF0020FEF713
:1015E000D9FF0020FEF7D6FF0020FEF7D3FF002032
:1015F000FEF7D0FF0020FEF7CDFF0020FEF7CAFF68
:10160000B420FEF7BBFF8B20FEF7C4FF0020FEF7DF
:10161000C1FF9620FEF7BEFF0020FEF7BBFFA12012
:10162000FEF7B8FF0020FEF7B5FFB520FEF7A6FFD6
:101630000220FEF7AFFF0020FEF7ACFF0320FEF70D
:10164000A9FF0020FEF7A6FF0420FEF7A3FF00205D
:10165000FEF7A0FFB620FEF791FF0020FEF79AFFED
:101660000020FEF797FFB720FEF788FF0020FEF767
:1016700091FF0020FEF78EFF3F20FEF78BFF00203A
:10168000FEF788FF5E20FEF785FF0020FEF782FF51
:101690006420FEF77FFF0020FEF77CFF8C20FEF722
:1016A00079FF0020FEF776FFAC20FEF773FF0020E5
:1016B000FEF770FFDC20FEF76DFF0020FEF76AFFEB
:1016C0007020FEF767FF0020FEF764FF9020FEF712
:1016D00061FF0020FEF75EFFEB20FEF75BFF0020BE
:1016E000FEF758FFDC20FEF755FF0020FEF752FF03
:1016F000B820FEF743FF0020FEF74CFF0020FEF766
:1017000049FF0020FEF746FF0020FEF743FF0020C0
:10171000FEF740FF0020FEF73DFF0020FEF73AFFF6
:101720000020FEF737FFBA20FEF728FF2420FEF73F
:1017300031FF0020FEF72EFF0020FEF72BFF0020D8
:10174000FEF728FFC120FEF719FF2020FEF722FF39
:101750000020FEF71FFF5420FEF71CFF0020FEF7BD
:1017600019FFFF20FEF716FF0020FEF713FFC2202F
:10177000FEF704FF0A20FEF70DFF0020FEF70AFF28
:101780000420FEF707FF0020FEF704FFC320FEF74A
:10179000F5FE3C20FEF7FEFE0020FEF7FBFE3A20A1
:1017A000FEF7F8FE0020FEF7F5FE3920FEF7F2FE08
:1017B0000020FEF7EFFE3720FEF7ECFE0020FEF7DC
:1017C000E9FE3C20FEF7E6FE0020FEF7E3FE3620B1
:1017D000FEF7E0FE0020FEF7DDFE3220FEF7DAFE27
:1017E0000020FEF7D7FE2F20FEF7D4FE0020FEF7E4
:1017F000D1FE2C20FEF7CEFE0020FEF7CBFE2920E6
:10180000FEF7C8FE0020FEF7C5FE2620FEF7C2FE4A
:101810000020FEF7BFFE2420FEF7BCFE0020FEF7EE
:10182000B9FE2420FEF7B6FE0020FEF7B3FE23200B
:10183000FEF7B0FE0020FEF7ADFE3C20FEF7AAFE4C
:101840000020FEF7A7FE3620FEF7A4FE0020FEF7DC
:10185000A1FE3220FEF79EFE0020FEF79BFE2F2009
:10186000FEF798FE0020FEF795FE2C20FEF792FE74
:101870000020FEF78FFE2920FEF78CFE0020FEF7E9
:1018800089FE2620FEF786FE0020FEF783FE242038
:10189000FEF780FE0020FEF77DFE2420FEF77AFE94
:1018A0000020FEF777FE2320FEF774FE0020FEF7EF
:1018B00071FEC420FEF762FE6220FEF76BFE002080
:1018C000FEF768FE0520FEF765FE0020FEF762FECB
:1018D0008420FEF75FFE0020FEF75CFEF020FEF79E
:1018E00059FE0020FEF756FE1820FEF753FE00209A
:1018F000FEF750FEA420FEF74DFE0020FEF74AFE44
:101900001820FEF747FE0020FEF744FE5020FEF7A9
:1019100041FE0020FEF73EFE0C20FEF73BFE0020BD
:10192000FEF738FE1720FEF735FE0020FEF732FEE8
:101930009520FEF72FFE0020FEF72CFEF320FEF789
:1019400029FE0020FEF726FEE620FEF723FE0020FB
:10195000FEF720FEC520FEF711FE3220FEF71AFE2C
:101960000020FEF717FE4420FEF714FE0020FEF7CD
:1019700011FE6520FEF70EFE0020FEF70BFE76201E
:10198000FEF708FE0020FEF705FE8820FEF702FEA7
:101990000020FEF7FFFDC620FEF7F0FD2020FEF739
:1019A000F9FD0020FEF7F6FD1720FEF7F3FD0020FD
:1019B000FEF7F0FD0120FEF7EDFD0020FEF7EAFD49
:1019C000C720FEF7DBFD0020FEF7E4FD0020FEF758
:1019D000E1FD0020FEF7DEFD0020FEF7DBFDC82064
:1019E000FEF7CCFD0020FEF7D5FD0020FEF7D2FD6E
:1019F0000020FEF7CFFD0020FEF7CCFDC920FEF74A
:101A0000BDFD0020FEF7C6FD0020FEF7C3FD00204F
:101A1000FEF7C0FD0020FEF7BDFD0020FEF7BAFD79
:101A20000020FEF7B7FD0020FEF7B4FD0020FEF712
:101A3000B1FD0020FEF7AEFD0020FEF7ABFD00205B
:101A4000FEF7A8FD0020FEF7A5FD0020FEF7A2FD91
:101A50000020FEF79FFD0020FEF79CFD0020FEF712
:101A600099FDE020FEF78AFD1620FEF793FD002089
:101A7000FEF790FD1C20FEF78DFD0020FEF78AFD8D
:101A80002120FEF787FD0020FEF784FD3620FEF7BB
:101A900081FD0020FEF77EFD4620FEF77BFD002045
:101AA000FEF778FD5220FEF775FD0020FEF772FD6F
:101AB0006420FEF76FFD0020FEF76CFD7A20FEF734
:101AC00069FD0020FEF766FD8B20FEF763FD002018
:101AD000FEF760FD9920FEF75DFD0020FEF75AFD40
:101AE000A820FEF757FD0020FEF754FDB920FEF7B1
:101AF00051FD0020FEF74EFDC420FEF74BFD0020F7
:101B0000FEF748FDCA20FEF745FD0020FEF742FD26
:101B1000D220FEF73FFD0020FEF73CFDD920FEF766
:101B200039FD0020FEF736FDE020FEF733FD0020F2
:101B3000FEF730FDF320FEF72DFD0020FEF72AFD15
:101B4000E120FEF71BFD1620FEF724FD0020FEF726
:101B500021FD1C20FEF71EFD0020FEF71BFD2220AC
:101B6000FEF718FD0020FEF715FD3620FEF712FDEA
:101B70000020FEF70FFD4520FEF70CFD0020FEF7CC
:101B800009FD5220FEF706FD0020FEF703FD64204C
:101B9000FEF700FD0020FEF7FDFC7A20FEF7FAFCC0
:101BA0000020FEF7F7FC8B20FEF7F4FC0020FEF788
:101BB000F1FC9920FEF7EEFC0020FEF7EBFCA820DC
:101BC000FEF7E8FC0020FEF7E5FCB920FEF7E2FC9A
:101BD0000020FEF7DFFCC420FEF7DCFC0020FEF74F
:101BE000D9FCCA20FEF7D6FC0020FEF7D3FCD22099
:101BF000FEF7D0FC0020FEF7CDFCD820FEF7CAFC93
:101C00000020FEF7C7FCE020FEF7C4FC0020FEF732
:101C1000C1FCF320FEF7BEFC0020FEF7BBFCE22077
:101C2000FEF7ACFC0520FEF7B5FC0020FEF7B2FC89
:101C30000B20FEF7AFFC0020FEF7ACFC1B20FEF7EC
:101C4000A9FC0020FEF7A6FC3420FEF7A3FC002030
:101C5000FEF7A0FC4420FEF79DFC0020FEF79AFC56
:101C60004F20FEF797FC0020FEF794FC6120FEF762
:101C700091FC0020FEF78EFC7920FEF78BFC002003
:101C8000FEF788FC8820FEF785FC0020FEF782FC2A
:101C90009720FEF77FFC0020FEF77CFCA620FEF7D5
:101CA00079FC0020FEF776FCB720FEF773FC0020DD
:101CB000FEF770FCC220FEF76DFC0020FEF76AFC08
:101CC000C720FEF767FC0020FEF764FCD120FEF77A
:101CD00061FC0020FEF75EFCD620FEF75BFC0020D6
:101CE000FEF758FCDD20FEF755FC0020FEF752FC05
:101CF000F320FEF74FFC0020FEF74CFCE320FEF73C
:101D00003DFC0520FEF746FC0020FEF743FC0A20C0
:101D1000FEF740FC0020FEF73DFC1C20FEF73AFCDD
:101D20000020FEF737FC332000E0FAE2FEF732FC39
:101D30000020FEF72FFC4420FEF72CFC0020FEF7CD
:101D400029FC5020FEF726FC0020FEF723FC622031
:101D5000FEF720FC0020FEF71DFC7820FEF71AFCA1
:101D60000020FEF717FC8820FEF714FC0020FEF789
:101D700011FC9720FEF70EFC0020FEF70BFCA620BE
:101D8000FEF708FC0020FEF705FCB720FEF702FC7A
:101D90000020FEF7FFFBC220FEF7FCFB0020FEF751
:101DA000F9FBC720FEF7F6FB0020FEF7F3FBD1207E
:101DB000FEF7F0FB0020FEF7EDFBD520FEF7EAFB77
:101DC0000020FEF7E7FBDD20FEF7E4FB0020FEF736
:101DD000E1FBF320FEF7DEFB0020FEF7DBFBE42057
:101DE000FEF7CCFB0120FEF7D5FB0020FEF7D2FB6F
:101DF0000120FEF7CFFB0020FEF7CCFB0220FEF710
:101E0000C9FB0020FEF7C6FB2A20FEF7C3FB00201B
:101E1000FEF7C0FB3C20FEF7BDFB0020FEF7BAFB3F
:101E20004B20FEF7B7FB0020FEF7B4FB5D20FEF76A
:101E3000B1FB0020FEF7AEFB7420FEF7ABFB0020E9
:101E4000FEF7A8FB8420FEF7A5FB0020FEF7A2FB0F
:101E50009320FEF79FFB0020FEF79CFBA220FEF7DD
:101E600099FB0020FEF796FBB320FEF793FB0020C2
:101E7000FEF790FBBE20FEF78DFB0020FEF78AFBED
:101E8000C420FEF787FB0020FEF784FBCD20FEF781
:101E900081FB0020FEF77EFBD320FEF77BFB0020BA
:101EA000FEF778FBDD20FEF775FB0020FEF772FBE6
:101EB000F320FEF76FFB0020FEF76CFBE520FEF73A
:101EC0005DFB0020FEF766FB0020FEF763FB0020B1
:101ED000FEF760FB0020FEF75DFB0220FEF75AFBD9
:101EE0000020FEF757FB2920FEF754FB0020FEF7E9
:101EF00051FB3C20FEF74EFB0020FEF74BFB4B2036
:101F0000FEF748FB0020FEF745FB5D20FEF742FB95
:101F10000020FEF73FFB7420FEF73CFB0020FEF79D
:101F200039FB8420FEF736FB0020FEF733FB9320BD
:101F3000FEF730FB0020FEF72DFBA220FEF72AFB68
:101F40000020FEF727FBB320FEF724FB0020FEF75E
:101F500021FBBE20FEF71EFB0020FEF71BFBC4206A
:101F6000FEF718FB0020FEF715FBCD20FEF712FB55
:101F70000020FEF70FFBD320FEF70CFB0020FEF73E
:101F800009FBDC20FEF706FB0020FEF703FBF32035
:101F9000FEF700FB0020FEF7FDFAE620FEF7EEFA62
:101FA0001120FEF7F7FA0020FEF7F4FA3420FEF7CE
:101FB000F1FA0020FEF7EEFA5620FEF7EBFA0020C9
:101FC000FEF7E8FA7620FEF7E5FA0020FEF7E2FADF
:101FD0007720FEF7DFFA0020FEF7DCFA6620FEF736
:101FE000D9FA0020FEF7D6FA8820FEF7D3FA0020AF
:101FF000FEF7D0FA9920FEF7CDFA0020FEF7CAFAD4
:10200000BB20FEF7C7FA0020FEF7C4FA9920FEF7BE
:10201000C1FA0020FEF7BEFA6620FEF7BBFA0020E8
:10202000FEF7B8FA5520FEF7B5FA0020FEF7B2FA2F
:102030005520FEF7AFFA0020FEF7ACFA4520FEF778
:10204000A9FA0020FEF7A6FA4320FEF7A3FA002023
:10205000FEF7A0FA4420FEF79DFA0020FEF79AFA58
:10206000E720FEF78BFA3220FEF794FA0020FEF705
:1020700091FA5520FEF78EFA0020FEF78BFA7620B3
:10208000FEF788FA0020FEF785FA6620FEF782FA4E
:102090000020FEF77FFA6720FEF77CFA0020FEF7AB
:1020A00079FA6720FEF776FA0020FEF773FA8720A8
:1020B000FEF770FA0020FEF76DFA9920FEF76AFA33
:1020C0000020FEF767FABB20FEF764FA0020FEF757
:1020D00061FA9920FEF75EFA0020FEF75BFA77209E
:1020E000FEF758FA0020FEF755FA4420FEF752FAA0
:1020F0000020FEF74FFA5620FEF74CFA0020FEF7BC
:1021000049FA2320FEF746FA0020FEF743FA33206F
:10211000FEF740FA0020FEF73DFA4520FEF73AFAB6
:102120000020FEF737FAE820FEF728FA0020FEF735
:1021300031FA0020FEF72EFA9920FEF72BFA002044
:10214000FEF728FA8720FEF725FA0020FEF722FA8C
:102150008820FEF71FFA0020FEF71CFA7720FEF712
:1021600019FA0020FEF716FA6620FEF713FA00208F
:10217000FEF710FA8820FEF70DFA0020FEF70AFAA3
:10218000AA20FEF707FA0020FEF704FABB20FEF7AC
:1021900001FA0020FEF7FEF99920FEF7FBF9002076
:1021A000FEF7F8F96620FEF7F5F90020FEF7F2F9E0
:1021B0005520FEF7EFF90020FEF7ECF95520FEF769
:1021C000E9F90020FEF7E6F94420FEF7E3F90020E4
:1021D000FEF7E0F94420FEF7DDF90020FEF7DAF91A
:1021E0005520FEF7D7F90020FEF7D4F9E920FEF7D5
:1021F000C5F9AA20FEF7CEF90020FEF7CBF90020A2
:10220000FEF7C8F90020FEF7C5F90020FEF7B6F981
:10221000AA20FEF7BFF9CF20FEF7B0F90020FEF7A5
:10222000B9F90020FEF7B6F90020FEF7B3F9002057
:10223000FEF7B0F90020FEF7ADF90020FEF7AAF98D
:102240000020FEF7A7F90020FEF7A4F90020FEF712
:10225000A1F90020FEF79EF90020FEF79BF900206F
:10226000FEF798F90020FEF795F90020FEF792F9A5
:102270000020FEF78FF90020FEF78CF90020FEF712
:1022800089F9F020FEF77AF90020FEF783F9502053
:10229000FEF780F90020FEF77DF90020FEF77AF9BD
:1022A0000020FEF777F9F320FEF768F90020FEF72B
:1022B00071F9F920FEF762F90620FEF76BF910209C
:1022C000FEF768F92920FEF765F90020FEF762F9AC
:1022D0003A20FEF753F95520FEF75CF91120FEF77E
:1022E0004DF9642001F0F9FC2920FEF747F935206B
:1022F000FEF744F90020FEF74DF95120FEF73EF9B4
:10230000FF20FEF747F95320FEF738F92C20FEF79F
:1023100041F95520FEF732F98220FEF73BF92C20D7
:10232000FDE3B0427ED1552153465046FEF748F9B1
:10233000AA215C465846FEF743F94FF202055221A6
:102340002846FEF73DF96E1C08213046FEF738F9A5
:10235000AF1C01213846FEF733F90D214FF4304010
:10236000FEF72EF90D214BF20100FEF729F90D21A0
:102370004BF20200FEF724F94FF4364C342160464C
:10238000FEF71EF934214BF20160FEF719F93421F2
:102390004BF20260FEF714F94FF431480D2140462C
:1023A000FEF70EF94BF201190D214846FEF708F928
:1023B0000D214BF20210FEF703F94FF4374A342196
:1023C0005046FEF7FDF84BF2017B34215846FEF7EC
:1023D000F7F834214BF20270FEF7F2F800214FF4C7
:1023E0003240FEF7EDF800214BF20120FEF7E8F84D
:1023F00000214BF20220FEF7E3F824214FF438408D
:10240000FEF7DEF824214BF60100FEF7D9F824216F
:102410004BF60200FEF7D4F801214FF43F40FEF7DF
:10242000CFF800E0FEE30F214FF43340FEF7C8F889
:102430000F214BF20130FEF7C3F80F214BF20230AF
:10244000FEF7BEF834214FF43940FEF7B9F83421D5
:102450004BF60110FEF7B4F834214BF60210FEF7EC
:10246000AFF808214FF43540FEF7AAF808214BF2E7
:102470000150FEF7A5F808214BF20250FEF7A0F834
:1024800003214FF44240FEF79BF824214FF43A40D9
:10249000FEF796F824214BF60120FEF791F824214F
:1024A0004BF60220FEF78CF800214FF43C40FEF77B
:1024B00087F878214BF60140FEF782F800214BF6B1
:1024C0000240FEF77DF800214FF43D40FEF778F81A
:1024D00078214BF60150FEF773F800214BF60250BD
:1024E000FEF76EF800214FF43E40FEF769F86421D4
:1024F0004BF60160FEF764F800214FF45140FEF7FF
:102500005FF833214DF20110FEF75AF800214DF229
:102510000210FEF755F834214DF20310FEF750F883
:1025200000214DF20410FEF74BF83A214DF2051050
:10253000FEF746F800214DF20610FEF741F84A2159
:102540004DF20710FEF73CF800214DF20810FEF79F
:1025500037F85C214DF20910FEF732F800214DF2F8
:102560000A10FEF72DF881214DF20B10FEF728F826
:1025700000214DF20C10FEF723F8A6214DF20D10AC
:10258000FEF71EF800214DF20E10FEF719F8E521B6
:102590004DF20F10FEF714F801214DF21010FEF766
:1025A0000FF813214DF21110FEF70AF801214DF238
:1025B0001210FEF705F854214DF21310FEF700F843
:1025C00001214DF21410FDF7FBFF82214DF2151091
:1025D000FDF7F6FF01214DF21610FDF7F1FFCA21BC
:1025E0004DF21710FDF7ECFF02214DF21810FDF728
:1025F000E7FF00214DF21910FDF7E2FF02214DF235
:102600001A10FDF7DDFF01214DF21B10FDF7D8FF79
:1026100002214DF21C10FDF7D3FF34214DF21D10A5
:10262000FDF7CEFF02214DF21E10FDF7C9FF672115
:102630004DF21F10FDF7C4FF02214DF22010FDF7EF
:10264000BFFF84214DF22110FDF7BAFF02214DF2A8
:102650002210FDF7B5FFA4214DF22310FDF7B0FFC6
:1026600002214DF22410FDF7ABFFB7214DF22510EA
:10267000FDF7A6FF02214DF22610FDF7A1FFCF21A5
:102680004DF22710FDF79CFF02214DF22810FDF7B7
:1026900097FFDE214DF22910FDF792FF02214DF246
:1026A0002A10FDF78DFFF2214DF22B10FDF788FF68
:1026B00002214DF22C10FDF783FFFE214DF22D106B
:1026C000FDF77EFF03214DF22E10FDF779FF10215B
:1026D0004DF22F10FDF774FF03214DF23010FDF77E
:1026E0006FFF33214DF23110FDF76AFF03214DF2E8
:1026F0003210FDF765FF6D214DF23310FDF760FFDD
:1027000000214FF45240FDF75BFF33214DF20120D1
:10271000FDF756FF00214DF20220FDF751FF342155
:102720004DF20320FDF74CFF00214DF20420FDF790
:1027300047FF3A214DF20520FDF742FF00214DF2FF
:102740000620FDF73DFF4A214DF20720FDF738FF37
:1027500000214DF20820FDF733FF5C214DF20920E6
:10276000FDF72EFF00214DF20A20FDF729FF812100
:102770004DF20B20FDF724FF00214DF20C20FDF758
:102780001FFFA6214DF20D20FDF71AFF00214DF28B
:102790000E20FDF715FFE5214DF20F20FDF710FF8C
:1027A00001214DF21020FDF70BFF13214DF21120F6
:1027B000FDF706FF01214DF21220FDF701FF542124
:1027C0004DF21320FDF7FCFE01214DF21420FDF720
:1027D000F7FE82214DF21520FDF7F2FE01214DF2A8
:1027E0001620FDF7EDFECA214DF21720FDF7E8FE99
:1027F00002214DF21820FDF7E3FE00214DF21920D1
:10280000FDF7DEFE02214DF21A20FDF7D9FE01216F
:102810004DF21B20FDF7D4FE02214DF21C20FDF7E6
:10282000CFFE34214DF21D20FDF7CAFE02214DF2EC
:102830001E20FDF7C5FE67214DF21F20FDF7C0FEEB
:1028400002214DF22020FDF7BBFE84214DF2212014
:10285000FDF7B6FE02214DF22220FDF7B1FEA421C4
:102860004DF22320FDF7ACFE02214DF22420FDF7AE
:10287000A7FEB7214DF22520FDF7A2FE02214DF261
:102880002620FDF79DFECF214DF22720FDF798FE73
:1028900002214DF22820FDF793FEDE214DF2292082
:1028A000FDF78EFE02214DF22A20FDF789FEF2216E
:1028B0004DF22B20FDF784FE02214DF22C20FDF776
:1028C0007FFEFE214DF22D20FDF77AFE03214DF211
:1028D0002E20FDF775FE10214DF22F20FDF770FE22
:1028E00003214DF23020FDF76BFE33214DF23120F4
:1028F000FDF766FE03214DF23220FDF761FE6D21EA
:102900004DF23320FDF75CFE00214FF45340FDF7FC
:1029100057FE33214DF20130FDF752FE00214DF2FA
:102920000230FDF74DFE34214DF20330FDF748FE35
:1029300000214DF20430FDF743FE3A214DF20530FF
:10294000FDF73EFE00214DF20630FDF739FE4A212B
:102950004DF20730FDF734FE00214DF20830FDF74F
:102960002FFE5C214DF20930FDF72AFE00214DF2C9
:102970000A30FDF725FE81214DF20B30FDF720FED8
:1029800000214DF20C30FDF71BFEA6214DF20D305B
:10299000FDF716FE00214DF20E30FDF711FEE52188
:1029A0004DF20F30FDF70CFE01214DF21030FDF716
:1029B00007FE13214DF21130FDF702FE01214DF209
:1029C0001230FDF7FDFD54214DF21330FDF7F8FDF7
:1029D00001214DF21430FDF7F3FD82214DF2153047
:1029E000FDF7EEFD01214DF21630FDF7E9FDCA219C
:1029F0004DF21730FDF7E4FD02214DF21830FDF7DE
:102A0000DFFD00214DF21930FDF7DAFD02214DF214
:102A10001A30FDF7D5FD01214DF21B30FDF7D0FD39
:102A200002214DF21C30FDF7CBFD34214DF21D305B
:102A3000FDF7C6FD02214DF21E30FDF7C1FD6721F5
:102A40004DF21F30FDF7BCFD02214DF22030FDF7A5
:102A5000B7FD84214DF22130FDF7B2FD02214DF288
:102A60002230FDF7ADFDA4214DF22330FDF7A8FD86
:102A700002214DF22430FDF7A3FDB7214DF22530A0
:102A8000FDF79EFD02214DF22630FDF799FDCF2185
:102A90004DF22730FDF794FD02214DF22830FDF76D
:102AA0008FFDDE214DF22930FDF78AFD02214DF226
:102AB0002A30FDF785FDF2214DF22B30FDF780FD28
:102AC00002214DF22C30FDF77BFDFE214DF22D3021
:102AD000FDF776FD03214DF22E30FDF771FD10213B
:102AE0004DF22F30FDF76CFD03214DF23030FDF734
:102AF00067FD33214DF23130FDF762FD03214DF2C8
:102B00003230FDF75DFD6D214DF23330FDF758FD9C
:102B100000214FF45440FDF753FD332100E07EE3E4
:102B20004DF20140FDF74CFD00214DF20240FDF752
:102B300047FD34214DF20340FDF742FD00214DF2E7
:102B40000440FDF73DFD3A214DF20540FDF738FD0B
:102B500000214DF20640FDF733FD4A214DF20740BA
:102B6000FDF72EFD00214DF20840FDF729FD5C2107
:102B70004DF20940FDF724FD00214DF20A40FDF71A
:102B80001FFD81214DF20B40FDF71AFD00214DF292
:102B90000C40FDF715FDA6214DF20D40FDF710FD8F
:102BA00000214DF20E40FDF70BFDE5214DF20F40E7
:102BB000FDF706FD01214DF21040FDF701FD132147
:102BC0004DF21140FDF7FCFC01214DF21240FDF7E2
:102BD000F7FC54214DF21340FDF7F2FC01214DF2B8
:102BE0001440FDF7EDFC82214DF21540FDF7E8FCA5
:102BF00001214DF21640FDF7E3FCCA214DF21740CA
:102C0000FDF7DEFC02214DF21840FDF7D9FC002152
:102C10004DF21940FDF7D4FC02214DF21A40FDF7A8
:102C2000CFFC00E0FEE201214DF21B40FDF7C8FCA5
:102C300002214DF21C40FDF7C3FC34214DF21D4032
:102C4000FDF7BEFC02214DF21E40FDF7B9FC6721E5
:102C50004DF21F40FDF7B4FC02214DF22040FDF77C
:102C6000AFFC84214DF22140FDF7AAFC02214DF278
:102C70002240FDF7A5FCA4214DF22340FDF7A0FC66
:102C800002214DF22440FDF79BFCB7214DF2254077
:102C9000FDF796FC02214DF22640FDF791FCCF2175
:102CA0004DF22740FDF78CFC02214DF22840FDF744
:102CB00087FCDE214DF22940FDF782FC02214DF216
:102CC0002A40FDF77DFCF2214DF22B40FDF778FC08
:102CD00002214DF22C40FDF773FCFE214DF22D40F8
:102CE000FDF76EFC03214DF22E40FDF769FC10212B
:102CF0004DF22F40FDF764FC03214DF23040FDF70B
:102D00005FFC33214DF23140FDF75AFC03214DF2B7
:102D10003240FDF755FC6D214DF23340FDF750FC7C
:102D200000214FF45540FDF74BFC33214DF201508B
:102D3000FDF746FC00214DF20250FDF741FC342125
:102D40004DF20350FDF73CFC00214DF20450FDF71D
:102D500037FC3A214DF20550FDF732FC00214DF2CF
:102D60000650FDF72DFC4A214DF20750FDF728FCD7
:102D700000214DF20850FDF723FC5C214DF2095073
:102D8000FDF71EFC00214DF20A50FDF719FC8121D0
:102D90004DF20B50FDF714FC00214DF20C50FDF7E5
:102DA0000FFCA6214DF20D50FDF70AFC00214DF25B
:102DB0000E50FDF705FCE5214DF20F50FDF700FC2C
:102DC00001214DF21050FDF7FBFB13214DF2115084
:102DD000FDF7F6FB01214DF21250FDF7F1FB5421F6
:102DE0004DF21350FDF7ECFB01214DF21450FDF7AD
:102DF000E7FB82214DF21550FDF7E2FB01214DF278
:102E00001650FDF7DDFBCA214DF21750FDF7D8FB38
:102E100002214DF21850FDF7D3FB00214DF219505D
:102E2000FDF7CEFB02214DF21A50FDF7C9FB01213F
:102E30004DF21B50FDF7C4FB02214DF21C50FDF773
:102E4000BFFB34214DF21D50FDF7BAFB02214DF2BC
:102E50001E50FDF7B5FB67214DF21F50FDF7B0FB8B
:102E600002214DF22050FDF7ABFB84214DF22150A1
:102E7000FDF7A6FB02214DF22250FDF7A1FBA42194
:102E80004DF22350FDF79CFB02214DF22450FDF73B
:102E900097FBB7214DF22550FDF792FB02214DF231
:102EA0002650FDF78DFBCF214DF22750FDF788FB13
:102EB00002214DF22850FDF783FBDE214DF229500F
:102EC000FDF77EFB02214DF22A50FDF779FBF2213E
:102ED0004DF22B50FDF774FB02214DF22C50FDF703
:102EE0006FFBFE214DF22D50FDF76AFB03214DF2E1
:102EF0002E50FDF765FB10214DF22F50FDF760FBC2
:102F000003214DF23050FDF75BFB33214DF2315080
:102F1000FDF756FB03214DF23250FDF751FB6D21B9
:102F20004DF23350FDF74CFB00214FF45640FDF7B6
:102F300047FB33214DF20160FDF742FB00214DF2CA
:102F40000260FDF73DFB34214DF20360FDF738FBD5
:102F500000214DF20460FDF733FB3A214DF205608C
:102F6000FDF72EFB00214DF20660FDF729FB4A21FB
:102F70004DF20760FDF724FB00214DF20860FDF7DC
:102F80001FFB5C214DF20960FDF71AFB00214DF299
:102F90000A60FDF715FB81214DF20B60FDF710FB78
:102FA00000214DF20C60FDF70BFBA6214DF20D60E8
:102FB000FDF706FB00214DF20E60FDF701FBE52158
:102FC0004DF20F60FDF7FCFA01214DF21060FDF7A4
:102FD000F7FA13214DF21160FDF7F2FA01214DF2DB
:102FE0001260FDF7EDFA54214DF21360FDF7E8FA97
:102FF00001214DF21460FDF7E3FA82214DF21560D4
:10300000FDF7DEFA01214DF21660FDF7D9FACA216B
:103010004DF21760FDF7D4FA02214DF21860FDF76A
:10302000CFFA00214DF21960FDF7CAFA02214DF2E4
:103030001A60FDF7C5FA01214DF21B60FDF7C0FAD9
:1030400002214DF21C60FDF7BBFA34214DF21D60E8
:10305000FDF7B6FA02214DF21E60FDF7B1FA6721C5
:103060004DF21F60FDF7ACFA02214DF22060FDF732
:10307000A7FA84214DF22160FDF7A2FA02214DF258
:103080002260FDF79DFAA4214DF22360FDF798FA26
:1030900002214DF22460FDF793FAB7214DF225602D
:1030A000FDF78EFA02214DF22660FDF789FACF2155
:1030B0004DF22760FDF784FA02214DF22860FDF7FA
:1030C0007FFADE214DF22960FDF77AFA02214DF2F6
:1030D0002A60FDF775FAF2214DF22B60FDF770FAC8
:1030E00002214DF22C60FDF76BFAFE214DF22D60AE
:1030F000FDF766FA03214DF22E60FDF761FA10210B
:103100004DF22F60FDF75CFA03214DF23060FDF7C0
:1031100057FA33214DF23160FDF752FA03214DF297
:103120003260FDF74DFA6D214DF23360FDF748FA3C
:1031300055211846FDF744FAAA212046FDF740FA2A
:1031400052212846FDF73CFA08213046FDF738FAAF
:1031500000213846FDF734FACC214046FDF730FA1D
:1031600000214846FDF72CFA05216046FDF728FAB4
:1031700070215046FDF724FA70215846FDF720FAD9
:1031800001214FF43840FDF71BFA03214BF60100F3
:10319000FDF716FA03214BF60200FDF711FA0321A1
:1031A0004BF60300FDF70CFA02214FF43C40FDF70B
:1031B00007FA00214BF60140FDF702FA00214BF619
:1031C0000240FDF7FDF9D0214FF44940FDF7F8F931
:1031D00002214CF60110FDF7F3F950214CF60210D4
:1031E000FDF7EEF950214CF60310FDF7E9F95021F7
:1031F0004CF60410FDF7E4F900214FF45450FDF7AC
:10320000DFF955214FF46850FDF7DAF94FF4885093
:10321000FDF7B4F9782000F032FD4FF42450FDF7AB
:10322000ADF9B9E04045FCD1E220FDF7A7F91D203A
:10323000FDF7B0F90220FDF7ADF90420FDF7AAF97A
:10324000642000F01CFDE020FDF798F90120FDF757
:10325000A1F90A2000F041FDE020FDF78FF90320DD
:10326000FDF798F90C2000F038FD0120FDF786F9F4
:103270000A2000F032FDE620FDF780F92F20FDF74F
:1032800089F9FF20FDF786F9FF20FDF783F9B020CB
:10329000FDF774F92020FDF77DF90020FDF77AF99C
:1032A0000320FDF777F940F21F30FDF773F9012095
:1032B000FDF770F940F2DF10FDF76CF90020FDF723
:1032C00069F9B420FDF75AF90420FDF763F940F2DB
:1032D0001F40FDF75FF90020FDF75CF92E20FDF798
:1032E00059F90020FDF756F90020FDF753F90020A9
:1032F000FDF750F90020FDF74DF9B620FDF73EF936
:103300000220FDF747F94FF40370FDF743F9002061
:10331000FDF740F91720FDF73DF91520FDF73AF9C3
:103320000020FDF737F90020FDF734F9F020FDF714
:1033300025F90320FDF72EF92920FDF71FF9D020EC
:10334000FDF71CF90020FDF725F9BE20FDF716F961
:103350000520FDF71FF9FE20FDF71CF90120FDF700
:1033600019F90020FDF716F90020FDF713F90020E8
:10337000FDF710F9B820FDF701F90320FDF70AF970
:103380000120FDF707F9BA20FDF7F8F80120FDF755
:1033900001F96420FDF73AFB0020FDF75AFBF849DC
:1033A0000120C1F8BC024FF6FF70FDF751FC21B0BF
:1033B000BDE8F08F2DE9F0418046A2EB0800401CEB
:1033C0001F460C4685B24FF0D84C069E0FE02146B2
:1033D0004046FDF71DF9FDF702F9002003E0ACF8C7
:1033E0008060401C80B2A842F9D3641CA4B2BC42E5
:1033F000EDD9BDE8F0812DE9F0438146A2EB09004B
:10340000401C0E4685B2981B401C87B200244FF02A
:10341000D848DDF81CC015E0301981B24846FDF7E8
:10342000F7F8FDF7DCF80020414607E004FB050251
:103430003CF81220A1F88020401C80B2A842F5D3AD
:10344000641CA4B2BC42E7D3BDE8F0832DE9FC4F75
:103450000026A2EB000C81465F1A701E3546884696
:10346000BCF1000F02DD4FF0010102E003D14FF08B
:103470000001009102E0CCF1000C0090002F02DD71
:103480004FF0010002E003D14FF00000834602E05C
:103490008346C7F10007BC4501DD644600E03C46B9
:1034A000601C4FF0000A019014E01FFA88F11FFA27
:1034B00089F0FDF738FA66443D44A64202DD0099E2
:1034C000361B8944A54201DD2D1BD8440AF10100B9
:1034D0001FFA80FA01998A45E7DDBDE8FC8FF0B557
:1034E0001C4615460E4607460B46FFF7AFFF3A4609
:1034F000234631461046FFF7A9FF23462A461946C0
:103500003846FFF7A3FF2A4623463146BDE8F04080
:1035100010469BE72DE9F84F84460024154603200A
:103520000F46A0EB45064AE0781B81B20CEB04097C
:1035300000901FFA89F0FDF7F6F9A7EB040B0CEBEE
:1035400005081FFA8BF11FFA88F0FDF7ECF907EB7D
:10355000040A1FFA8AF11FFA88F0FDF7E4F907EB75
:1035600005081FFA88F11FFA89F0FDF7DCF9ACEBCA
:1035700004091FFA88F11FFA89F0FDF7D4F9ACEBC2
:1035800005081FFA8AF11FFA88F0FDF7CCF90098B8
:1035900081B21FFA89F0FDF7C6F91FFA8BF11FFA05
:1035A00088F0FDF7C0F9641C002E03DA06EB8406F0
:1035B000B61D04E0601B06EB80066D1E0A36AC42A9
:1035C000B2DDBDE8F88F2DE9F84F82461F460C4664
:1035D0008B46580700D0012000EBD700790810FB7C
:1035E00001F0203AC0B202F0FF090026009041E04D
:1035F0000C2F10D0102F12D0182FE2D1614909EBF7
:10360000C90001EB80004FF00008855D28060AD54F
:103610005D4802880BE009EB49005C49F1E75C4931
:1036200001EB0910EFE70A9828B95748428821466C
:103630005046FDF784F96806050E5648641CA4B28E
:103640004088A042BDD9A4EB0B00B84209D10AF1D1
:1036500001001FFA80FA4F485C4601885145B0D9F5
:1036600006E008F1010000F0FF08B8F1080FCDD323
:10367000761CF6B200988642BAD3A2E70346012030
:1036800000E05843491EC9B2FBD270472DE9FF4FF5
:1036900081B00027DDF838B01D46924680463C4692
:1036A000B9464FEA5B0627E0281B401EC1B20A203C
:1036B000FFF7E4FFBAFBF0F00A21B0FBF1F201FBE7
:1036C000120027B9691E8C4201DA48B10127303057
:1036D000C2B206FB048080B25B46CDF8009006E0E3
:1036E00006FB048080B25B462022CDF80090029950
:1036F000FFF769FF641CE4B2AC42D5D305B057E6CE
:103700002DE9FF4F81B08046DDF83CA00E984FF0C8
:1037100000091F4693464C460AF0010546082BE077
:10372000381B401EC1B20A20FFF7A8FFBBFBF0F018
:103730000A21B0FBF1F201FB1200B9F1000F05D133
:10374000791E8C4202DA48B14FF001093030C2B222
:1037500006FB048080B200950E9B08E05FEA0A60D9
:1037600006FB04800E9B80B2009515D5302202998D
:10377000FFF729FF641CE4B2BC42D1D3BEE70000CE
:103780000080404276C400081400002012BA0008ED
:1037900086BE0008BE0400202022E8E72DE9F84F8D
:1037A000044600F0FF0810190D46DDE90A761FFAFD
:1037B00080FA58191FFA80F94FF0000B11E05445B8
:1037C00002D3E819444685B24D450FD23B462946FF
:1037D0002046CDF800B0FFF7F6FE04EB570084B2A8
:1037E000761C3278A2F120005E28E8D9E9E60000D4
:1037F0001CB50121112001F024F81C2000900020AC
:103800008DF8040003208DF8050001248DF8074091
:103810006946354800F0EEFB02208DF80700009461
:103820006946324800F0E6FB1CBD2DE9F041304C02
:103830002E4F2D4D012608B1267001E02078A0B151
:103840001021284600F027FCB0B10821284600F0DE
:1038500022FC88B10421284600F01DFC60B1012142
:10386000384600F018FC012806D01021284600F048
:1038700012FC012824D035E00A2000F02EFA0020A6
:1038800020701021284600F006FC80B1082128464F
:1038900000F001FC70B10421284600F0FCFB58B197
:1038A0000121384600F0F7FB012807D01AE001207B
:1038B000BDE8F0810220FBE70320F9E70420F7E7E9
:1038C0000821284600F0E7FB01280BD104212846F7
:1038D00000F0E1FB012805D10121384600F0DBFBB7
:1038E00000B926700020E3E700100240000002400B
:1038F000180000201CB50121022000F0A2FF4FF4A7
:103900004070012400908DF8044000208DF80600DE
:1039100003208DF805008DF8074069467C4800F0CB
:1039200069FB7C48C0F8A042C0F8A4421CBD70B539
:103930007748016821F440210160016841F4802149
:103940000160744C0120C4F8A402C4F8A002042051
:1039500004F5287400F093F900256560042000F058
:103960008EF9256070BD6A4810B5016821F44021C8
:103970000160016841F480210160664C0020C4F8B8
:10398000A002C4F8A402042004F5287400F077F91A
:10399000012020606060BDE81040042000F06FB995
:1039A00070B55B480024016821F440210160016882
:1039B0000160584D0126C5F8A462304600F05FF959
:1039C000C5F8A062012000F05AF907E0641CE4B2D7
:1039D000FA2C03D9FFF7C7FF012070BDD5F82402E8
:1039E0000028F3D1C5F8A00270BD70B5494C002580
:1039F000C4F8A0524648016821F4402101600168E2
:103A000041F480210160C4F8A452022004F5287416
:103A100000F035F901202060022000F030F9256027
:103A200070BD70B53B4C0026C4F8A06238480168F0
:103A300021F440210160016841F4802101600125E9
:103A4000C4F8A452022004F5287400F018F9256087
:103A5000022000F014F9266070BD2DE9F041054602
:103A60002B48016821F440210160016841F4802164
:103A70000160284E0027C6F8A0723C464FF00108AE
:103A8000E809C6F8A4026806050E022000F0F7F85F
:103A9000C6F8A082022000F0F2F8C6F8A072022058
:103AA00000F0EDF8641CE4B2082CE9D3BDE8F08125
:103AB0002DE9F047814616480024016821F4402191
:103AC000016001680160134E254627464FF001084A
:103AD000C6F8A072022000F0D2F8C6F8A0826006F4
:103AE000040ED6F8240208B1641CE4B2012000F0F0
:103AF000C6F86D1CEDB2082DEAD3B9F1000F04D061
:103B0000FFF773FF2046BDE8F087FFF78AFFF9E76C
:103B10000004024000804042FFF7ECBE10B50446AE
:103B2000FFF705FF200AA02101EB4000C0B2FFF71C
:103B300094FFFFF735FFE0B2FFF78FFFFFF730FF8D
:103B4000FFF7F5FEA120FFF788FFFFF729FF002010
:103B5000FFF7AEFF0446FFF706FF204610BD70B525
:103B60000D460446FFF7E3FE200AA02101EB4000CA
:103B7000C0B2FFF772FFFFF713FFE0B2FFF76DFF70
:103B8000FFF70EFF2846FFF768FFFFF709FFFFF773
:103B9000EAFEBDE870400A2000F09FB82DE9F04130
:103BA00016460D460746002409E0E00025FA00F01D
:103BB000C1B2381980B2FFF7D2FF641CE4B2B4423C
:103BC000F3D3BDE8F0812DE9F0410D460146002018
:103BD00004464E1908E00702301B401E80B2FFF772
:103BE0009DFF641C3844E4B2AC42F4D3E9E710B55D
:103BF000FF20FFF793FF55280AD05521FF20FFF73C
:103C0000AEFFFF20FFF78AFF552801D0012010BD2D
:103C1000002010BD70B515460E46044608E020464B
:103C2000641CA4B2FFF77AFF6D1E06F8010BADB25B
:103C3000002DF4D170BD70B514460D46064606E061
:103C400029783046FFF78BFF761CB6B26D1C641ED8
:103C5000A4B2F5D270BD000010B504466FF00400A8
:103C600000F04AF92949E00800EB40020870C2EB75
:103C7000C0104FF6FF7202EAC000488010BD234911
:103C8000097848434FF0E021486100238B610869BF
:103C900040F0010008610869C20701D0C003FAD5ED
:103CA000086920F0010008618B6170471749498855
:103CB00048434FF0E021486100238B61086940F0E0
:103CC000010008610869C20701D0C003FAD508697C
:103CD00020F0010008618B61704770B54FF40776E2
:103CE000B0FBF6F1CCB2B0FBF6F106FB110504E037
:103CF0003046FFF7DBFF641EE4B2002CF8D1002D44
:103D000003D02846BDE87040D0E770BD1A000020FF
:103D1000704742490A885206FCD5C2B28A80704771
:103D2000F0B50646012187B0084600F08AFD012162
:103D3000102000F0AEFD3A4D07220921284600F080
:103D4000CDF907220A21284600F0C8F902218DF892
:103D500014108DF815104FF4C060002404908DF8F5
:103D6000164001278DF8177004A9284600F042F983
:103D7000ADF80440ADF80640ADF80840ADF80C4091
:103D80000C20264CADF80A0000966946204600F04B
:103D9000B2FE0121204600F01FFF012240F2255112
:103DA000204600F0B8FF25208DF8180003208DF87C
:103DB00019008DF81A008DF81B7006A800F05BF84A
:103DC00007B0F0BD70B5154C40F22551204600F00B
:103DD000C4FF00280ED0204600F028FF114AC1B2CF
:103DE0001088030406D444044FF0000306D50A29C2
:103DF00001D0138070BD40F400400DE00D2909D0C2
:103E0000C0F30D04084D401C80B229551080C7280E
:103E1000EFD870BD40F48040108070BD00100140AC
:103E2000000002401E000020CC040020094880470A
:103E300009480047FEE7FEE7FEE7FEE7FEE7FEE78C
:103E4000FEE7FEE7FEE7FEE704480549054A064BA4
:103E50007047000067040008890100084808002036
:103E6000480E0020480A0020480A0020284908433C
:103E700028490860704730B50F23C27801780125C2
:103E8000FAB1244A126801F1E02102F4E062C2F5BD
:103E9000E062C2F30722C2F10404D3404278A24098
:103EA00084781C401443220181F80024007800F03B
:103EB0001F018D404009800000F1E020C0F8005152
:103EC00030BD01F01F0085404809800000F1E0206E
:103ED000C0F8805130BD104A114001430D48001F09
:103EE000016070470B4A121D0029116801D001437F
:103EF00000E08143116070474FF0E0210428086919
:103F000003D020F004000861704740F00400FAE795
:103F10000000FA050CED00E080FFFF1F774910B5A7
:103F2000884206D10121084600F0BDFC0021012095
:103F30005BE07349884206D10121022000F0B3FC06
:103F40000021022051E06F49884206D1012104205E
:103F500000F0A9FC0021042047E06B49884206D10B
:103F60000121082000F09FFC002108203DE0674966
:103F7000884206D10121102000F095FC002110207C
:103F800033E06349884206D10121202000F08BFCF8
:103F90000021202029E05F49884206D101214020EC
:103FA00000F081FC002140201FE05B49884206D1DF
:103FB0000121802000F077FC0021802015E0574986
:103FC000884202D1012184150AE05549884202D174
:103FD0000121441504E0534988420AD10121041506
:103FE000204600F060FC00212046BDE8104000F0B3
:103FF0005ABC10BDF0B5002201274FF0030C0B682E
:1040000007FA02F52B40AB422CD1066853000CFA9C
:1040100003F4A64306600E79D0F800E09E4046EA1D
:104020000E0606600E79012E01D0022E12D186688E
:10403000A64386604E79D0F808E09E4046EA0E0618
:1040400086604668AE43466045688E799640B6B253
:1040500035434560C568A543C560CC799C40C368BD
:104060001C43C460521C102AC9D3F0BD4FF6FF7127
:1040700001600021017141718171C171704708B502
:1040800041F480320092C261C1610099C161C1698D
:10409000C069009008BD0246002012690A4200D0A3
:1040A00001207047006980B27047024600205269C3
:1040B0000A4200D001207047406980B270470183F6
:1040C0007047418370470AB101837047418370474D
:1040D0004161704742694A40426170474B07DB0EBD
:1040E0009A40C90810B500EB8100016A0F249C407A
:1040F000A1430162016A1143016210BD0000024048
:104100000004024000080240000C0240001002407F
:104110000014024000180240001C0240002002402F
:1041200000240240002802408100A1F1C04140B1BA
:1041300043F2D20008606FF070404860C1F804019B
:1041400070474FF0204243F2DB001060F3E710B5F8
:10415000D0E901121143D0E903231A431143426904
:10416000114382691143C2691143026A1143426AD1
:104170001143826A1143C26A1143026B1143026800
:104180009200A2F1C04211608168082907D101683C
:104190008900A1F1C0410A6842F040020A60416B07
:1041A000D1E9002342EA03128B688C891B0243EA9F
:1041B00004431A430B8A42EA03520B7D896942EA9F
:1041C00003620A4301688900A1F1C0414A60C16AE3
:1041D000B1F5804F08D000686FF070418000A0F109
:1041E000C040C0F8041110BD816BD1E9002342EA40
:1041F00003128B680C8A1B0243EA04531A430B7D9B
:10420000896942EA036200680A438000A0F1C04065
:10421000C0F8042110BD00210222C0E90012816013
:10422000C160016141618161D202C161C0E90812CE
:104230005200C0E90A210163CB49416381637047A1
:104240008000A0F1C0400029016802D041F00101C6
:1042500001E0C64A11400160704710B518234024A0
:104260004FF020414FF0FC32102805D041F8803F3C
:104270004C608A60CA6010BD0B664C668A66CA666E
:1042800010BD30B5D0E901121143D0E903231A4320
:104290001143426941EA4221826941EA423141F0D7
:1042A0000804C169D1E9002342EA03220B89097B92
:1042B0001B0443EA01610A43016AD1E9003543EA7C
:1042C00005230D89097B2D0445EA01610B43016833
:1042D0004FF02040102904D040F8804F8260C36026
:1042E00030BD04668266C36630BD102101600021C6
:1042F00041608160C160016141618161C269FC21ED
:104300001160C2695160C2699160C269D160026A7C
:104310001160026A5160026A9160006AC160704770
:104320004FF0204251B1102804D052F8800F40F0D5
:1043300004000AE0106E40F004000AE08B49C91E38
:10434000102804D052F8800F084010607047106E9B
:104350000840106670474FF0204251B1102804D039
:1043600052F8800F40F040000AE0106E40F040002C
:104370000AE07E493F39102804D052F8800F0840E7
:1043800010607047106E0840106670474FF0204173
:10439000102802D0D1F894007047486F70474FF052
:1043A0002040182140F8A01F002141604FF0FC314F
:1043B0008160C1600161704710B5D0E9001241EA27
:1043C00042218268102343EA423211434FF02042D7
:1043D00042F8A01FC168D1E9003443EA04230C89E4
:1043E000097B240444EA01610B4393600169D1E92C
:1043F000003443EA04230C89097B240444EA016164
:104400000B43D3604069D0E9001341EA03210389DB
:10441000007B1B0443EA00600143116110BD0021D1
:10442000016041608160C268FC211160C268516016
:10443000C2689160C268D16002691160026951600E
:10444000026991600269D1604269116042695160FC
:10445000426991604069C16070474FF02041002877
:1044600051F8A00F02D040F0040002E03F4AD21EF3
:1044700010400860704710B54FF480744FF020432F
:1044800072B1102804D0A04205D153F8840F04E083
:10449000586E08430DE053F8A40F0843186010BD90
:1044A000102804D0A04206D153F8840F05E0586EBE
:1044B0008843586610BD53F8A40F8843EEE70346BF
:1044C00000204FF02042102B08D0B3F5807F07D09A
:1044D000D2F8A4200A4200D001207047526EF9E7BA
:1044E000D2F88420F6E74FF02042102807D0B0F52C
:1044F000807F08D052F8A40F884310607047506E38
:1045000088435066704752F8840FF5E70346002051
:104510004FF02042102B0CD0B3F5807F0BD0D2F897
:10452000A4200A4202EAD10102D0002900D00120D1
:104530007047526EF5E7D2F88420F2E74FF0204240
:10454000102808D0B0F5807F0AD052F8A40F20EAD6
:10455000D10010607047506E20EAD100506670475D
:1045600052F8840FF3E70000D4D10008FEFF0F00DB
:10457000F848016841F001010160F64A0021083263
:1045800011600268F44B1A400260031DF34A1A607E
:10459000F04BF34A84331A60F04A103A1B1D1A603C
:1045A000026822F480220260EA480C300160181D83
:1045B00001607047E7490022891C0A700870704743
:1045C00002460020510901290CD002290CD0E149F2
:1045D0007431096802F01F02012393400B4200D09E
:1045E00001207047DB49F4E7DA497031F1E718B58B
:1045F00000204FF4A04400903120FFF7E1FF009924
:10460000491C0091A14201D00028F5D03120FFF7CC
:10461000D7FF002800D0012018BDCE4A116821F034
:10462000F80141EAC00010607047CE490860704749
:10463000C849002270310A700A70012802D004288B
:1046400001D1052008707047C7490860704741EAEA
:1046500082115A0810B5C54B029C03EB024211436C
:10466000014341EA0460BB49091D086010BDBD4912
:1046700008667047800140EA0170B64984310860DD
:104680007047B84988667047800140EA0160B149C7
:1046900040EA0270883108607047B2490867704785
:1046A000B049C8647047AB4B08331A68084322F01E
:1046B000EC62104318607047A64B08331A68084331
:1046C00022F07842104318607047A24A08321168FD
:1046D00021F003010143116070479E4808300068D3
:1046E00000F00C0070479B4A0832116821F0F0017D
:1046F000014311607047974A0832116821F4E05174
:10470000014311607047934A0832116821F46041F7
:1047100041EAC0001060704770B58E4B08331968CD
:10472000934C11F00C0104D06610042903D0082921
:1047300003D004601BE0066019E0864A121D116870
:10474000C1F38055116801F03F0115B1B6FBF1F1DD
:1047500001E0B4FBF1F114681268C4F388146143FA
:10476000C2F30142521C5200B1FBF2F10160196820
:104770000F2202EA11117F4A545C0168E140416056
:104780001C68072505EA9424145D21FA04F484606A
:104790001B6805EA5333D25CD140C16070BDC0F3E1
:1047A0000121032908D16B4B08331968724A21F49F
:1047B000F81102400A431A60664970310A68C0F372
:1047C0000B0002430A60704767494439086070472C
:1047D00065494039086070476249C1F85C0170471B
:1047E0005C4A8C321168401E21F01F0101431160A8
:1047F0007047584A8C3211686FF0FF0321F4F8516A
:1048000003EB0020084310607047524A8C32116855
:1048100021F440110143116070474E4A8C321168F7
:1048200021F440010143116070474A4A8C321168FB
:1048300021F440310143116070475049C1F8E00153
:104840007047444A30320029116801D0014300E02A
:104850008143116070473F4A34320029116801D00A
:10486000014300E08143116070473A4A3832002921
:10487000116801D0014300E0814311607047354A5F
:1048800040320029116801D0014300E081431160EA
:104890007047304A44320029116801D0014300E0DA
:1048A0008143116070472B4A10320029116801D0F2
:1048B000014300E0814311607047264A1432002909
:1048C000116801D0014300E0814311607047214A23
:1048D00018320029116801D0014300E081431160C2
:1048E00070471C4A20320029116801D0014300E0C2
:1048F000814311607047174A24320029116801D0A2
:10490000014300E0814311607047124A5032002990
:10491000116801D0014300E08143116070470D4AE6
:1049200054320029116801D0014300E08143116035
:104930007047084A58320029116801D0014300E04D
:10494000814311607047034A60320029116817D013
:10495000014316E000380240FFFFF6EA1030002461
:104960000030002000004742800E47420000FFFF59
:104970000024F40024000020FFFCFF0F0010474239
:10498000814311607047194A0029116801D0014321
:1049900000E081431160704714490C310128086818
:1049A00003D020F008000860704740F00800FAE7E4
:1049B0000E4A573A0029117801D0014300E08143A3
:1049C0001170704709481030016841F08071016032
:1049D00070470146054A0020583A12680A4200D042
:1049E0000120704701495639087070476438024009
:1049F00010B501218C032046FFF77DFF2046BDE85E
:104A000010400021FFF777BF144908607047144930
:104A10000862704710B58A0721F003041149120F8C
:104A200021440F23D1F8084893409C43C1F808481B
:104A3000D1F8083890400343C1F8083810BD084940
:104A4000C1F8DC007047084908607047034900203E
:104A500020310968C90500D50120704700380140A0
:104A6000000027420030014000042742CD4910B524
:104A7000884206D101211020FFF73DFF00211020C0
:104A800020E0C949884202D101214C0429E0C749EC
:104A9000884202D101218C0423E0C549884202D119
:104AA0000121CC041DE0C349884202D101210C053B
:104AB00017E0C149884209D101212020FFF71BFFDF
:104AC00000212020BDE81040FFF715BFBB498842F8
:104AD00002D101218C0704E0B94988420AD10121A1
:104AE00044052046FFF7FDFE2046BDE810400021AA
:104AF000FFF7F7BE10BD7FB50446008A0D46C98892
:104B000020F4405001432182A08941F20C61884386
:104B1000A9882A8911436A8902431143A181A08A85
:104B200020F44071A8890843A0826846FFF7F4FD8D
:104B30009C48844202D0A048844201D1039800E0FE
:104B40000298A189090400EBC00101EB001029685B
:104B500001D5490000E08900B0FBF1F06422B0FB10
:104B6000F2F109010B096FF018056B4300EB8300AC
:104B7000A3891D044FF0320306D503EBC000B0FB40
:104B8000F2F000F0070005E003EB0010B0FBF2F0DC
:104B900000F00F00084320817FBD4FF416510160E3
:104BA00000218180C18001810C2242818181704776
:104BB00010B5028A4C8822F470630A8822438C88DC
:104BC000C9880C4322431A43028210BD0021018090
:104BD00041808180C18070470029818902D041F4E1
:104BE000005101E021F4005181817047028B02F4F1
:104BF0007F420283028B0A43028370470029818926
:104C000002D041F4004101E0C1F30E0181817047FF
:104C10000029818A02D041F4006101E021F40061A1
:104C200081827047C1F30801818070478088C0F39A
:104C300008007047028A22F00F020282028A0A43A9
:104C4000028270470029818902D041F0020101E00F
:104C500021F0020181817047828922F40062828101
:104C600082890A4382817047028A22F020020282EE
:104C7000028A0A43028270470029018A02D041F465
:104C8000804101E021F4804101827047818941F037
:104C90000101818170470029818A02D041F0080119
:104CA00001E021F0080181827047028BD2B20283B9
:104CB000028B42EA0121018370470029818A02D0D8
:104CC00041F0200101E021F020018182704700299C
:104CD000818A02D041F0100101E021F010018182AF
:104CE0007047828A22F004028282828A0A43828288
:104CF00070470029818A02D041F0020101E021F0D1
:104D0000020181827047002A828A01D00A4300E0B2
:104D10008A438282704710B5C1F3421301F01F0429
:104D20000121A140012B07D0022B07D01430002A0B
:104D3000026805D00A4304E00C30F8E71030F6E7CB
:104D40008A43026010BD0246002012880A4200D049
:104D500001207047C9430180704770B501F01F05FD
:104D600001260024C1F3421306FA05F2012B0FD0ED
:104D7000022B0FD0838A4FEA11210088134206FAD2
:104D800001F600EA060001D000B10124204670BD02
:104D90008389F0E7038AEEE70A0A01219140C943BB
:104DA000018070470010014000440040004800406E
:104DB000004C0040005000400014014000780040CA
:104DC000007C0040354900200860091D0860091D6D
:104DD0000860091D08603149314814310860704786
:104DE00030B52E4A8379016853B313688B4313603F
:104DF000111D0B680468A3430B60017911440B6813
:104E0000046823430B60254B083319680468A143E9
:104E100019601C1D21680568A9432160417910298A
:104E200005D011440A68006802430A6030BD196861
:104E3000026811431960216800680143216030BD98
:104E40000079104402688A43026030BD002101608D
:104E500001710C22427181717047104910310A684A
:104E600002430A60704701460C4A0020143212685F
:104E70000A4200D001207047084914310860704789
:104E80000146064A0020143212680A4200D001206E
:104E9000704702491431086070470000003C01402F
:104EA000FFFF7F00FE4910B5884206D10121084668
:104EB000FFF721FD002101205BE0B0F1804F09D018
:104EC000F84988420DD101210220FFF70AFD002197
:104ED000022070E001210846FFF703FD00210120B8
:104EE00069E0F149884206D101210420FFF7F9FC6D
:104EF000002104205FE0ED49884206D1012108200D
:104F0000FFF7EFFC0021082055E0E949884206D16F
:104F100001211020FFF7E5FC002110204BE0E549BE
:104F2000884206D101212020FFF7DBFC0021202050
:104F300041E0E149884206D101210220FFF7DBFC74
:104F40000021022015E0DD49884202D101210C0434
:104F50000AE0DB49884202D101214C0404E0D9492E
:104F600088420AD101218C042046FFF7C4FC0021AD
:104F70002046BDE81040FFF7BEBCD349884206D1A9
:104F800001214020FFF7ADFC0021402013E0CF4974
:104F9000884206D101218020FFF7A3FC0021802058
:104FA00009E0CB4988420AD1841501212046FFF748
:104FB00098FC00212046BDE81040FFF792BC10BDD0
:104FC00030B50288B64CBC4DA0420DD0A8420BD0E3
:104FD000B0F1804F08D0B34B984205D0B24B984205
:104FE00002D0B24B984203D122F070034A881A4390
:104FF000AF4B984206D0AF4B984203D022F4407397
:105000000A891A4302804A68C2620A880285A0425D
:1050100001D0A84201D1897A01860121818230BD67
:105020004FF0FF3141600021018001814180817298
:105030007047018582827047028822F070020A431D
:105040000280704741627047C1627047406A704792
:10505000008D70470029018802D041F0020101E073
:1050600021F00201018070470029018802D041F03F
:10507000040101E021F0040101807047002901884A
:1050800002D041F0800101E021F0800101807047F1
:10509000028822F00802028002880A4302807047D8
:1050A000028822F44072028002880A43028070471C
:1050B0000029018802D041F0010101E021F0010145
:1050C0000180704730B5028C22F001020284028C0C
:1050D0008388048B22F0020224F073050C882C4391
:1050E0008D8915434A882A436D4DA84202D0724DDE
:1050F000A8420DD122F00805CA8923F440732A433F
:1051000022F004058A882A430D8A1D434B8A2B43CB
:105110008380048389684163028430BD70B5028C4A
:1051200022F010020284028C8388048B0D8824F400
:10513000E6464FF6FF7404EA052535438E8922F0D2
:10514000200204EA061616434A8804EA0212324391
:10515000534EB04202D0584EB04215D122F08006D4
:10516000CA8923F4406304EA0212324322F0400663
:105170008A8804EA021232430E8A04EA86061E4333
:105180004B8A04EA83033343838005838968816300
:10519000028470BD70B5028C22F480720284028C8D
:1051A0008388848B0D8824F0730425438E894FF601
:1051B000FF7422F4007204EA062616434A8804EAC1
:1051C00002223243364EB04202D03B4EB04215D19D
:1051D00022F40066CA8923F4405304EA02223243CF
:1051E00022F480668A8804EA022232430E8A04EAA4
:1051F00006161E434B8A04EA0313334383808583D8
:105200008968C163028470BD70B5028C22F480523B
:105210000284058C8288838B0C8823F4E6464FF643
:10522000FF7303EA0424344325F400568D8903EA0E
:10523000053535434E8803EA06362E43184DA842FD
:1052400002D01D4DA84205D122F480450A8A03EA06
:1052500082122A438280848389680164068470BD37
:10526000002101804180818081608181C181018232
:105270004182704730B50124058C00F118038C4041
:10528000A543058431B308292CD0091FC1F34E0072
:105290001844016848F6FF731940016001681AE07C
:1052A000000001400004004000080040000C0040E5
:1052B0000010004000140040000401400040014084
:1052C000004401400048014000180040001C00401C
:1052D0000020004006E04FF6FF7303EA022211436C
:1052E000016030BD03EB510001684FF68F73194028
:1052F00001600168F3E74163704781637047C163F0
:10530000704701647047028B22F070020A430283E7
:105310007047028B4FF6FF7322F4E04203EA01214B
:10532000114301837047828B22F070020A4382830B
:105330007047828B4FF6FF7322F4E04203EA0121AB
:10534000114381837047028B22F008020A430283D3
:105350007047028B4FF6FF7322F4006203EA0121CB
:10536000114301837047828B22F008020A43828333
:105370007047828B4FF6FF7322F4006203EA01212B
:10538000114381837047028B22F004020A43028397
:105390007047028B4FF6FF7322F4806203EA01210B
:1053A000114301837047828B22F004020A438283F7
:1053B0007047828B4FF6FF7322F4806203EA01216B
:1053C000114381837047028B22F080020A430283DB
:1053D0007047028B4FF6FF73C2F30E0203EA0121FE
:1053E000114301837047828B22F080020A4382833B
:1053F0007047828B4FF6FF73C2F30E0203EA01215E
:10540000114381837047028C22F002020A43028416
:105410007047028C22F008020A4302847047028C13
:105420004FF6FF7322F0200203EA011111430184B9
:105430007047028C4FF6FF7322F0800203EA0111DD
:10544000114301847047028C4FF6FF7322F40072FF
:1054500003EA0121114301847047028C4FF6FF7368
:1054600022F4006203EA0121114301847047028C97
:105470004FF6FF7322F4005203EA01311143018415
:10548000704710B50123048C8B409C430484038C2B
:105490008A401343038410BD10B50423048C8B4051
:1054A0009C430484038C8A401343038410BD828B85
:1054B00022F440628283828B4FF6FF7303EA01215C
:1054C0000A4382837047828B22F00C028283828B94
:1054D0000A4382837047028B22F440620283028B6C
:1054E0004FF6FF7303EA01210A4302837047F0B5C8
:1054F000048C24F010040484078B068C4FF6FF7490
:1055000004EA011527F4734704EA0331394304EA36
:1055100002220A4326F0A001294341F01001028330
:105520000184F0BD028B22F00C020283028B0A433D
:10553000028370472DE9F0410C460E884988A28805
:10554000238905460EB3042E26D0082E2E8C4FF646
:10555000FF7028D026F480562E84AF8B2E8C00EA64
:10556000022200EA013127F473473A4300EA03308C
:10557000104326F420420A4342F48051A883298430
:10558000E1882846BDE8F04191E700F062F9E18842
:105590002846BDE8F041C5E7FFF7A9FFE1882846A6
:1055A000BDE8F04197E726F480762E84AF8B2E8CF1
:1055B00000EA012100EA0310104327F0F307384303
:1055C00026F420620A4342F48071A8832984E1888A
:1055D0002846BDE8F04176E70021018041800122A4
:1055E0008280C180018170472DE9F0410C46002680
:1055F00049880746012501B90226A288012A00D15F
:105600000225208823890028384610D0FFF76FFF35
:10561000E1883846FFF75FFF23892A46314638463E
:1056200000F017F9E1883846BDE8F0417AE700F06C
:1056300010F9E1883846FFF775FF23892A4631467D
:105640003846FFF754FFE1883846BDE8F04142E7AD
:10565000406B7047806B7047C06B7047006C704741
:1056600010B50A884B88CC881A438B8823431A4389
:105670000B891A434B8989891A430A43A0F84420AD
:1056800010BD0021018041808180C1800181418164
:1056900081817047002930F8441F02D041F4004155
:1056A00001E0C1F30E01018070470029818802D01A
:1056B00041F0040101E021F00401818070470029DC
:1056C000818802D041F0010101E021F001018180D7
:1056D0007047002A828901D00A4300E08A43828110
:1056E00070478182704702460020128A0A4200D029
:1056F00001207047C9430182704702460020138A87
:1057000092890B4202EA010202D0002A00D0012055
:105710007047C943018270471143A0F84810704791
:10572000002A828901D00A4300E08A4382817047BF
:105730000029818802D041F0080101E021F0080130
:1057400081807047018921F007010181704702893A
:1057500022F070020A430281704700B50346FFF74A
:10576000F6FF188940F00700188100BD70B5164695
:105770000D46602904464FF0010231460AD000F080
:1057800068F829462046FFF7E2FF208940F007002D
:10579000208170BDFFF7ABFEF3E730B504894FF60B
:1057A000FF7505EA03231343E4B20B43234303814C
:1057B00030BD10B50446FFF7F0FF208940F07700B8
:1057C000208110BD10B50446FFF7E7FF208940F4A3
:1057D0008040208110BD828822F070028280828801
:1057E0000A4382807047028922F0070202810289FF
:1057F0000A4302817047028922F0800202810289F5
:105800000A430281704770B50589048B068C25F028
:1058100007050D434FF6FC410C4040F201110C43CB
:105820004FF6FF7101EA031126F0220611433143BE
:1058300005810483018470BD0029818802D041F074
:10584000800101E021F0800181807047A0F85010B4
:10585000704770B5048C24F001040484058B048C1B
:105860004FF6FF7606EA0313134325F0F3052B43A7
:1058700024F00A020A4342F001010383018470BD4F
:1058800001210171002141710222827141F2D7226E
:105890000260084670470122027102220021427113
:1058A000072282714FF4B46202600846704738B52F
:1058B00015460C466A46C22103F00CFE01212170F8
:1058C0009DF800100909297038BD02F0EBBF38B50A
:1058D0000C466A46142103F0FDFD9DF80010C1F34B
:1058E000C302227038BD03F013B803F044B803F0CC
:1058F0005EB803F0B4B80246002092F832210A7074
:10590000704702F0F5BB02F00BBC2DE9F8430746E7
:10591000002090460E468DF800006A460121384668
:1059200003F0D8FD9DF800400500204630D1291F26
:10593000B8F1010F06D0052E29D2DFE806F0191CB8
:105940001F222500052E22D2DFE806F00306090CEF
:105950000F0044F010041BE044F0280418E044F069
:10596000040415E044F0400412E044F080040FE029
:1059700004F0EF040CE004F0D70409E004F0FB04A9
:1059800006E004F0BF0403E004F07F0400E00D46ED
:1059900084420DD065B922460121384603F058FDF6
:1059A000050005D187F8304138467969FFF7ABFF2C
:1059B0002846BDE8F88310B50C460A46092103F0D5
:1059C00089FD002803D1217801F00101217010BD6B
:1059D00002F007BC38B50C4605466A46012103F0C3
:1059E00079FD00280BD19DF8001085F830110906CB
:1059F00001D5012100E00021217085F84C1038BD4F
:105A000003460020062902D3001F002102E01944AA
:105A100091F82810117070472DE9F84305460020D1
:105A20000E4617468046062E2ED2DFE806F0030506
:105A3000111315156C6B2EE06A464421284603F0BD
:105A400054FD10B9BDF800104C024FF001080CE0F5
:105A5000EC6B20E02C6C1EE06A466421284603F0C3
:105A600044FD10B9BDF800104C020028A1D1B8F1D6
:105A7000000F10D005EB8601AA1944B13C604C63BD
:105A8000012182F8281094E76FF0030091E7496B39
:105A900039600021F5E73C608BE701F0ADB938B51E
:105AA0000D4604466A46202103F01FFD002807D159
:105AB000BDF8001029B1CA002A60012122622177B5
:105AC00038BD216A29600021F9E77CB50C460546FE
:105AD0006A46F82103F009FD00280ED101AA04212D
